S00F000073797374656D312E737265633F
S113000071C0000079C0000077C0000075C0000016
S113001073C0000071C000006FC000006DC000001C
S11300206BC000006AC0000067C0000065C000002B
S113003063C0000061C000005FC000005DC000003C
S11300405BC0000059C0000057C0000055C000004C
S113005053C0000051C000004FC000004DC000005C
S11300604BC0000049C0000047C0000045C000006C
S113007043C0000041C000003FC000003DC000007C
S11300803BC0000039C0000037C0000035C000008C
S113009033C0000031C000002FC000002DC000009C
S11300A02BC0000029C0000027C0000025C00000AC
S11300B023C0000021C000001FC000001DC00000BC
S11300C01BC0000019C0000017C0000015C00000CC
S11300D013C0000011C000000FC000000DC00000DC
S11300E00BC0000011241FBECFEFD1E2DEBFCDBF95
S11300F000E00CBF24D045C083CF1F920F920FB6EF
S11301000F9211240BB60F928F93EF93FF931C99C8
S113011009C083B1806883B9E0E0F1E08081806246
S1130120808303C083B18F7783B9FF91EF918F915F
S11301300F900BBE0F900FBE0F901F90189584B1B7
S1130140806884B984B18F7E84B9E1E0F1E0808174
S11301508062808383B7817F846083BFEBE6F0E0B5
S1130160808180618083E8E6F0E080818160808323
S1130170789483B7816083BF889583B78E7F83BF6C
S1090180F8CFF894FFCF54
S9030000FC
